{
  "_format": "hh-sol-artifact-1",
  "contractName": "MetaTokenNFT",
  "sourceName": "contracts/MetaTokenNFT.sol",
  "abi": [
    {
      "inputs": [],
      "stateMutability": "nonpayable",
      "type": "constructor"
    },
    {
      "inputs": [],
      "name": "ApprovalCallerNotOwnerNorApproved",
      "type": "error"
    },
    {
      "inputs": [],
      "name": "ApprovalQueryForNonexistentToken",
      "type": "error"
    },
    {
      "inputs": [],
      "name": "BalanceQueryForZeroAddress",
      "type": "error"
    },
    {
      "inputs": [],
      "name": "MintERC2309QuantityExceedsLimit",
      "type": "error"
    },
    {
      "inputs": [],
      "name": "MintToZeroAddress",
      "type": "error"
    },
    {
      "inputs": [],
      "name": "MintZeroQuantity",
      "type": "error"
    },
    {
      "inputs": [],
      "name": "OwnerQueryForNonexistentToken",
      "type": "error"
    },
    {
      "inputs": [],
      "name": "OwnershipNotInitializedForExtraData",
      "type": "error"
    },
    {
      "inputs": [],
      "name": "TransferCallerNotOwnerNorApproved",
      "type": "error"
    },
    {
      "inputs": [],
      "name": "TransferFromIncorrectOwner",
      "type": "error"
    },
    {
      "inputs": [],
      "name": "TransferToNonERC721ReceiverImplementer",
      "type": "error"
    },
    {
      "inputs": [],
      "name": "TransferToZeroAddress",
      "type": "error"
    },
    {
      "inputs": [],
      "name": "URIQueryForNonexistentToken",
      "type": "error"
    },
    {
      "anonymous": false,
      "inputs": [
        {
          "indexed": true,
          "internalType": "address",
          "name": "owner",
          "type": "address"
        },
        {
          "indexed": true,
          "internalType": "address",
          "name": "approved",
          "type": "address"
        },
        {
          "indexed": true,
          "internalType": "uint256",
          "name": "tokenId",
          "type": "uint256"
        }
      ],
      "name": "Approval",
      "type": "event"
    },
    {
      "anonymous": false,
      "inputs": [
        {
          "indexed": true,
          "internalType": "address",
          "name": "owner",
          "type": "address"
        },
        {
          "indexed": true,
          "internalType": "address",
          "name": "operator",
          "type": "address"
        },
        {
          "indexed": false,
          "internalType": "bool",
          "name": "approved",
          "type": "bool"
        }
      ],
      "name": "ApprovalForAll",
      "type": "event"
    },
    {
      "anonymous": false,
      "inputs": [
        {
          "indexed": true,
          "internalType": "uint256",
          "name": "fromTokenId",
          "type": "uint256"
        },
        {
          "indexed": false,
          "internalType": "uint256",
          "name": "toTokenId",
          "type": "uint256"
        },
        {
          "indexed": true,
          "internalType": "address",
          "name": "from",
          "type": "address"
        },
        {
          "indexed": true,
          "internalType": "address",
          "name": "to",
          "type": "address"
        }
      ],
      "name": "ConsecutiveTransfer",
      "type": "event"
    },
    {
      "anonymous": false,
      "inputs": [
        {
          "indexed": true,
          "internalType": "address",
          "name": "from",
          "type": "address"
        },
        {
          "indexed": true,
          "internalType": "address",
          "name": "to",
          "type": "address"
        },
        {
          "indexed": true,
          "internalType": "uint256",
          "name": "tokenId",
          "type": "uint256"
        }
      ],
      "name": "Transfer",
      "type": "event"
    },
    {
      "inputs": [
        {
          "internalType": "address",
          "name": "to",
          "type": "address"
        },
        {
          "internalType": "uint256",
          "name": "tokenId",
          "type": "uint256"
        }
      ],
      "name": "approve",
      "outputs": [],
      "stateMutability": "payable",
      "type": "function"
    },
    {
      "inputs": [
        {
          "internalType": "address",
          "name": "owner",
          "type": "address"
        }
      ],
      "name": "balanceOf",
      "outputs": [
        {
          "internalType": "uint256",
          "name": "",
          "type": "uint256"
        }
      ],
      "stateMutability": "view",
      "type": "function"
    },
    {
      "inputs": [
        {
          "internalType": "uint256",
          "name": "tokenId",
          "type": "uint256"
        }
      ],
      "name": "getApproved",
      "outputs": [
        {
          "internalType": "address",
          "name": "",
          "type": "address"
        }
      ],
      "stateMutability": "view",
      "type": "function"
    },
    {
      "inputs": [
        {
          "internalType": "address",
          "name": "owner",
          "type": "address"
        },
        {
          "internalType": "address",
          "name": "operator",
          "type": "address"
        }
      ],
      "name": "isApprovedForAll",
      "outputs": [
        {
          "internalType": "bool",
          "name": "",
          "type": "bool"
        }
      ],
      "stateMutability": "view",
      "type": "function"
    },
    {
      "inputs": [],
      "name": "maxSupply",
      "outputs": [
        {
          "internalType": "uint8",
          "name": "",
          "type": "uint8"
        }
      ],
      "stateMutability": "view",
      "type": "function"
    },
    {
      "inputs": [],
      "name": "name",
      "outputs": [
        {
          "internalType": "string",
          "name": "",
          "type": "string"
        }
      ],
      "stateMutability": "view",
      "type": "function"
    },
    {
      "inputs": [
        {
          "internalType": "uint256",
          "name": "tokenId",
          "type": "uint256"
        }
      ],
      "name": "ownerOf",
      "outputs": [
        {
          "internalType": "address",
          "name": "",
          "type": "address"
        }
      ],
      "stateMutability": "view",
      "type": "function"
    },
    {
      "inputs": [],
      "name": "promptDescription",
      "outputs": [
        {
          "internalType": "string",
          "name": "",
          "type": "string"
        }
      ],
      "stateMutability": "pure",
      "type": "function"
    },
    {
      "inputs": [
        {
          "internalType": "uint8",
          "name": "_quantity",
          "type": "uint8"
        }
      ],
      "name": "safeMint",
      "outputs": [],
      "stateMutability": "payable",
      "type": "function"
    },
    {
      "inputs": [
        {
          "internalType": "address",
          "name": "from",
          "type": "address"
        },
        {
          "internalType": "address",
          "name": "to",
          "type": "address"
        },
        {
          "internalType": "uint256",
          "name": "tokenId",
          "type": "uint256"
        }
      ],
      "name": "safeTransferFrom",
      "outputs": [],
      "stateMutability": "payable",
      "type": "function"
    },
    {
      "inputs": [
        {
          "internalType": "address",
          "name": "from",
          "type": "address"
        },
        {
          "internalType": "address",
          "name": "to",
          "type": "address"
        },
        {
          "internalType": "uint256",
          "name": "tokenId",
          "type": "uint256"
        },
        {
          "internalType": "bytes",
          "name": "_data",
          "type": "bytes"
        }
      ],
      "name": "safeTransferFrom",
      "outputs": [],
      "stateMutability": "payable",
      "type": "function"
    },
    {
      "inputs": [
        {
          "internalType": "address",
          "name": "operator",
          "type": "address"
        },
        {
          "internalType": "bool",
          "name": "approved",
          "type": "bool"
        }
      ],
      "name": "setApprovalForAll",
      "outputs": [],
      "stateMutability": "nonpayable",
      "type": "function"
    },
    {
      "inputs": [
        {
          "internalType": "bytes4",
          "name": "interfaceId",
          "type": "bytes4"
        }
      ],
      "name": "supportsInterface",
      "outputs": [
        {
          "internalType": "bool",
          "name": "",
          "type": "bool"
        }
      ],
      "stateMutability": "view",
      "type": "function"
    },
    {
      "inputs": [],
      "name": "symbol",
      "outputs": [
        {
          "internalType": "string",
          "name": "",
          "type": "string"
        }
      ],
      "stateMutability": "view",
      "type": "function"
    },
    {
      "inputs": [
        {
          "internalType": "uint256",
          "name": "tokenId",
          "type": "uint256"
        }
      ],
      "name": "tokenURI",
      "outputs": [
        {
          "internalType": "string",
          "name": "",
          "type": "string"
        }
      ],
      "stateMutability": "view",
      "type": "function"
    },
    {
      "inputs": [],
      "name": "totalSupply",
      "outputs": [
        {
          "internalType": "uint256",
          "name": "",
          "type": "uint256"
        }
      ],
      "stateMutability": "view",
      "type": "function"
    },
    {
      "inputs": [
        {
          "internalType": "address",
          "name": "from",
          "type": "address"
        },
        {
          "internalType": "address",
          "name": "to",
          "type": "address"
        },
        {
          "internalType": "uint256",
          "name": "tokenId",
          "type": "uint256"
        }
      ],
      "name": "transferFrom",
      "outputs": [],
      "stateMutability": "payable",
      "type": "function"
    }
  ],
  "bytecode": "0x60806040526005600860006101000a81548160ff021916908360ff1602179055503480156200002d57600080fd5b506040518060400160405280600581526020017f46726564790000000000000000000000000000000000000000000000000000008152506040518060400160405280600381526020017f46524400000000000000000000000000000000000000000000000000000000008152508160029081620000ab91906200035b565b508060039081620000bd91906200035b565b50620000ce620000dc60201b60201c565b600081905550505062000442565b600090565b600081519050919050565b7f4e487b7100000000000000000000000000000000000000000000000000000000600052604160045260246000fd5b7f4e487b7100000000000000000000000000000000000000000000000000000000600052602260045260246000fd5b600060028204905060018216806200016357607f821691505b6020821081036200017957620001786200011b565b5b50919050565b60008190508160005260206000209050919050565b60006020601f8301049050919050565b600082821b905092915050565b600060088302620001e37fffffffffffffffffffffffffffffffffffffffffffffffffffffffffffffffff82620001a4565b620001ef8683620001a4565b95508019841693508086168417925050509392505050565b6000819050919050565b6000819050919050565b60006200023c62000236620002308462000207565b62000211565b62000207565b9050919050565b6000819050919050565b62000258836200021b565b62000270620002678262000243565b848454620001b1565b825550505050565b600090565b6200028762000278565b620002948184846200024d565b505050565b5b81811015620002bc57620002b06000826200027d565b6001810190506200029a565b5050565b601f8211156200030b57620002d5816200017f565b620002e08462000194565b81016020851015620002f0578190505b62000308620002ff8562000194565b83018262000299565b50505b505050565b600082821c905092915050565b6000620003306000198460080262000310565b1980831691505092915050565b60006200034b83836200031d565b9150826002028217905092915050565b6200036682620000e1565b67ffffffffffffffff811115620003825762000381620000ec565b5b6200038e82546200014a565b6200039b828285620002c0565b600060209050601f831160018114620003d35760008415620003be578287015190505b620003ca85826200033d565b8655506200043a565b601f198416620003e3866200017f565b60005b828110156200040d57848901518255600182019150602085019450602081019050620003e6565b868310156200042d578489015162000429601f8916826200031d565b8355505b6001600288020188555050505b505050505050565b611d6580620004526000396000f3fe6080604052600436106100fe5760003560e01c806370a0823111610095578063b88d4fde11610064578063b88d4fde14610320578063c87b56dd1461033c578063d5abeb0114610379578063da863ed6146103a4578063e985e9c5146103c0576100fe565b806370a082311461026457806395363731146102a157806395d89b41146102cc578063a22cb465146102f7576100fe565b806318160ddd116100d157806318160ddd146101c457806323b872dd146101ef57806342842e0e1461020b5780636352211e14610227576100fe565b806301ffc9a71461010357806306fdde0314610140578063081812fc1461016b578063095ea7b3146101a8575b600080fd5b34801561010f57600080fd5b5061012a60048036038101906101259190611578565b6103fd565b60405161013791906115c0565b60405180910390f35b34801561014c57600080fd5b5061015561048f565b604051610162919061166b565b60405180910390f35b34801561017757600080fd5b50610192600480360381019061018d91906116c3565b610521565b60405161019f9190611731565b60405180910390f35b6101c260048036038101906101bd9190611778565b6105a0565b005b3480156101d057600080fd5b506101d96106e4565b6040516101e691906117c7565b60405180910390f35b610209600480360381019061020491906117e2565b6106fb565b005b610225600480360381019061022091906117e2565b610a1d565b005b34801561023357600080fd5b5061024e600480360381019061024991906116c3565b610a3d565b60405161025b9190611731565b60405180910390f35b34801561027057600080fd5b5061028b60048036038101906102869190611835565b610a4f565b60405161029891906117c7565b60405180910390f35b3480156102ad57600080fd5b506102b6610a61565b6040516102c3919061166b565b60405180910390f35b3480156102d857600080fd5b506102e1610a9e565b6040516102ee919061166b565b60405180910390f35b34801561030357600080fd5b5061031e6004803603810190610319919061188e565b610b30565b005b61033a60048036038101906103359190611a03565b610c3b565b005b34801561034857600080fd5b50610363600480360381019061035e91906116c3565b610cae565b604051610370919061166b565b60405180910390f35b34801561038557600080fd5b5061038e610d4c565b60405161039b9190611aa2565b60405180910390f35b6103be60048036038101906103b99190611ae9565b610d5f565b005b3480156103cc57600080fd5b506103e760048036038101906103e29190611b16565b610d6f565b6040516103f491906115c0565b60405180910390f35b60006301ffc9a760e01b827bffffffffffffffffffffffffffffffffffffffffffffffffffffffff1916148061045857506380ac58cd60e01b827bffffffffffffffffffffffffffffffffffffffffffffffffffffffff1916145b806104885750635b5e139f60e01b827bffffffffffffffffffffffffffffffffffffffffffffffffffffffff1916145b9050919050565b60606002805461049e90611b85565b80601f01602080910402602001604051908101604052809291908181526020018280546104ca90611b85565b80156105175780601f106104ec57610100808354040283529160200191610517565b820191906000526020600020905b8154815290600101906020018083116104fa57829003601f168201915b5050505050905090565b600061052c82610e03565b610562576040517fcf4700e400000000000000000000000000000000000000000000000000000000815260040160405180910390fd5b6006600083815260200190815260200160002060000160009054906101000a900473ffffffffffffffffffffffffffffffffffffffff169050919050565b60006105ab82610a3d565b90508073ffffffffffffffffffffffffffffffffffffffff166105cc610e62565b73ffffffffffffffffffffffffffffffffffffffff161461062f576105f8816105f3610e62565b610d6f565b61062e576040517fcfb3b94200000000000000000000000000000000000000000000000000000000815260040160405180910390fd5b5b826006600084815260200190815260200160002060000160006101000a81548173ffffffffffffffffffffffffffffffffffffffff021916908373ffffffffffffffffffffffffffffffffffffffff160217905550818373ffffffffffffffffffffffffffffffffffffffff168273ffffffffffffffffffffffffffffffffffffffff167f8c5be1e5ebec7d5bd14f71427d1e84f3dd0314c0f7b2291e5b200ac8c7c3b92560405160405180910390a4505050565b60006106ee610e6a565b6001546000540303905090565b600061070682610e6f565b90508373ffffffffffffffffffffffffffffffffffffffff168173ffffffffffffffffffffffffffffffffffffffff161461076d576040517fa114810000000000000000000000000000000000000000000000000000000000815260040160405180910390fd5b60008061077984610f3b565b9150915061078f818761078a610e62565b610f62565b6107db576107a48661079f610e62565b610d6f565b6107da576040517f59c896be00000000000000000000000000000000000000000000000000000000815260040160405180910390fd5b5b600073ffffffffffffffffffffffffffffffffffffffff168573ffffffffffffffffffffffffffffffffffffffff1603610841576040517fea553b3400000000000000000000000000000000000000000000000000000000815260040160405180910390fd5b61084e8686866001610fa6565b801561085957600082555b600560008773ffffffffffffffffffffffffffffffffffffffff1673ffffffffffffffffffffffffffffffffffffffff168152602001908152602001600020600081546001900391905081905550600560008673ffffffffffffffffffffffffffffffffffffffff1673ffffffffffffffffffffffffffffffffffffffff168152602001908152602001600020600081546001019190508190555061092785610903888887610fac565b7c020000000000000000000000000000000000000000000000000000000017610fd4565b600460008681526020019081526020016000208190555060007c02000000000000000000000000000000000000000000000000000000008416036109ad57600060018501905060006004600083815260200190815260200160002054036109ab5760005481146109aa578360046000838152602001908152602001600020819055505b5b505b838573ffffffffffffffffffffffffffffffffffffffff168773ffffffffffffffffffffffffffffffffffffffff167fddf252ad1be2c89b69c2b068fc378daa952ba7f163c4a11628f55a4df523b3ef60405160405180910390a4610a158686866001610fff565b505050505050565b610a3883838360405180602001604052806000815250610c3b565b505050565b6000610a4882610e6f565b9050919050565b6000610a5a82611005565b9050919050565b60606040518060400160405280601481526020017f4120536572656e6520466f726573742050617468000000000000000000000000815250905090565b606060038054610aad90611b85565b80601f0160208091040260200160405190810160405280929190818152602001828054610ad990611b85565b8015610b265780601f10610afb57610100808354040283529160200191610b26565b820191906000526020600020905b815481529060010190602001808311610b0957829003601f168201915b5050505050905090565b8060076000610b3d610e62565b73ffffffffffffffffffffffffffffffffffffffff1673ffffffffffffffffffffffffffffffffffffffff16815260200190815260200160002060008473ffffffffffffffffffffffffffffffffffffffff1673ffffffffffffffffffffffffffffffffffffffff16815260200190815260200160002060006101000a81548160ff0219169083151502179055508173ffffffffffffffffffffffffffffffffffffffff16610bea610e62565b73ffffffffffffffffffffffffffffffffffffffff167f17307eab39ab6107e8899845ad3d59bd9653f200f220920489ca2b5937696c3183604051610c2f91906115c0565b60405180910390a35050565b610c468484846106fb565b60008373ffffffffffffffffffffffffffffffffffffffff163b14610ca857610c71848484846110bd565b610ca7576040517fd1a57ed600000000000000000000000000000000000000000000000000000000815260040160405180910390fd5b5b50505050565b6060610cb982610e03565b610cef576040517fa14c4b5000000000000000000000000000000000000000000000000000000000815260040160405180910390fd5b6000610cf961120d565b90506000815103610d195760405180602001604052806000815250610d44565b80610d238461122d565b604051602001610d34929190611bf2565b6040516020818303038152906040525b915050919050565b600860009054906101000a900460ff1681565b610d6c338260ff1661127d565b50565b6000600760008473ffffffffffffffffffffffffffffffffffffffff1673ffffffffffffffffffffffffffffffffffffffff16815260200190815260200160002060008373ffffffffffffffffffffffffffffffffffffffff1673ffffffffffffffffffffffffffffffffffffffff16815260200190815260200160002060009054906101000a900460ff16905092915050565b600081610e0e610e6a565b11158015610e1d575060005482105b8015610e5b575060007c0100000000000000000000000000000000000000000000000000000000600460008581526020019081526020016000205416145b9050919050565b600033905090565b600090565b60008082905080610e7e610e6a565b11610f0457600054811015610f035760006004600083815260200190815260200160002054905060007c0100000000000000000000000000000000000000000000000000000000821603610f01575b60008103610ef7576004600083600190039350838152602001908152602001600020549050610ecd565b8092505050610f36565b505b5b6040517fdf2d9b4200000000000000000000000000000000000000000000000000000000815260040160405180910390fd5b919050565b60008060006006600085815260200190815260200160002090508092508254915050915091565b600073ffffffffffffffffffffffffffffffffffffffff8316925073ffffffffffffffffffffffffffffffffffffffff821691508382148383141790509392505050565b50505050565b60008060e883901c905060e8610fc386868461129b565b62ffffff16901b9150509392505050565b600073ffffffffffffffffffffffffffffffffffffffff83169250814260a01b178317905092915050565b50505050565b60008073ffffffffffffffffffffffffffffffffffffffff168273ffffffffffffffffffffffffffffffffffffffff160361106c576040517f8f4eb60400000000000000000000000000000000000000000000000000000000815260040160405180910390fd5b67ffffffffffffffff600560008473ffffffffffffffffffffffffffffffffffffffff1673ffffffffffffffffffffffffffffffffffffffff16815260200190815260200160002054169050919050565b60008373ffffffffffffffffffffffffffffffffffffffff1663150b7a026110e3610e62565b8786866040518563ffffffff1660e01b81526004016111059493929190611c6b565b6020604051808303816000875af192505050801561114157506040513d601f19601f8201168201806040525081019061113e9190611ccc565b60015b6111ba573d8060008114611171576040519150601f19603f3d011682016040523d82523d6000602084013e611176565b606091505b5060008151036111b2576040517fd1a57ed600000000000000000000000000000000000000000000000000000000815260040160405180910390fd5b805181602001fd5b63150b7a0260e01b7bffffffffffffffffffffffffffffffffffffffffffffffffffffffff1916817bffffffffffffffffffffffffffffffffffffffffffffffffffffffff191614915050949350505050565b6060604051806060016040528060368152602001611cfa60369139905090565b606060a060405101806040526020810391506000825281835b60011561126857600184039350600a81066030018453600a8104905080611246575b50828103602084039350808452505050919050565b6112978282604051806020016040528060008152506112a4565b5050565b60009392505050565b6112ae8383611341565b60008373ffffffffffffffffffffffffffffffffffffffff163b1461133c57600080549050600083820390505b6112ee60008683806001019450866110bd565b611324576040517fd1a57ed600000000000000000000000000000000000000000000000000000000815260040160405180910390fd5b8181106112db57816000541461133957600080fd5b50505b505050565b60008054905060008203611381576040517fb562e8dd00000000000000000000000000000000000000000000000000000000815260040160405180910390fd5b61138e6000848385610fa6565b600160406001901b178202600560008573ffffffffffffffffffffffffffffffffffffffff1673ffffffffffffffffffffffffffffffffffffffff16815260200190815260200160002060008282540192505081905550611405836113f66000866000610fac565b6113ff856114fc565b17610fd4565b6004600083815260200190815260200160002081905550600080838301905073ffffffffffffffffffffffffffffffffffffffff85169150828260007fddf252ad1be2c89b69c2b068fc378daa952ba7f163c4a11628f55a4df523b3ef600080a4600183015b8181146114a657808360007fddf252ad1be2c89b69c2b068fc378daa952ba7f163c4a11628f55a4df523b3ef600080a460018101905061146b565b50600082036114e1576040517f2e07630000000000000000000000000000000000000000000000000000000000815260040160405180910390fd5b8060008190555050506114f76000848385610fff565b505050565b60006001821460e11b9050919050565b6000604051905090565b600080fd5b600080fd5b60007fffffffff0000000000000000000000000000000000000000000000000000000082169050919050565b61155581611520565b811461156057600080fd5b50565b6000813590506115728161154c565b92915050565b60006020828403121561158e5761158d611516565b5b600061159c84828501611563565b91505092915050565b60008115159050919050565b6115ba816115a5565b82525050565b60006020820190506115d560008301846115b1565b92915050565b600081519050919050565b600082825260208201905092915050565b60005b838110156116155780820151818401526020810190506115fa565b60008484015250505050565b6000601f19601f8301169050919050565b600061163d826115db565b61164781856115e6565b93506116578185602086016115f7565b61166081611621565b840191505092915050565b600060208201905081810360008301526116858184611632565b905092915050565b6000819050919050565b6116a08161168d565b81146116ab57600080fd5b50565b6000813590506116bd81611697565b92915050565b6000602082840312156116d9576116d8611516565b5b60006116e7848285016116ae565b91505092915050565b600073ffffffffffffffffffffffffffffffffffffffff82169050919050565b600061171b826116f0565b9050919050565b61172b81611710565b82525050565b60006020820190506117466000830184611722565b92915050565b61175581611710565b811461176057600080fd5b50565b6000813590506117728161174c565b92915050565b6000806040838503121561178f5761178e611516565b5b600061179d85828601611763565b92505060206117ae858286016116ae565b9150509250929050565b6117c18161168d565b82525050565b60006020820190506117dc60008301846117b8565b92915050565b6000806000606084860312156117fb576117fa611516565b5b600061180986828701611763565b935050602061181a86828701611763565b925050604061182b868287016116ae565b9150509250925092565b60006020828403121561184b5761184a611516565b5b600061185984828501611763565b91505092915050565b61186b816115a5565b811461187657600080fd5b50565b60008135905061188881611862565b92915050565b600080604083850312156118a5576118a4611516565b5b60006118b385828601611763565b92505060206118c485828601611879565b9150509250929050565b600080fd5b600080fd5b7f4e487b7100000000000000000000000000000000000000000000000000000000600052604160045260246000fd5b61191082611621565b810181811067ffffffffffffffff8211171561192f5761192e6118d8565b5b80604052505050565b600061194261150c565b905061194e8282611907565b919050565b600067ffffffffffffffff82111561196e5761196d6118d8565b5b61197782611621565b9050602081019050919050565b82818337600083830152505050565b60006119a66119a184611953565b611938565b9050828152602081018484840111156119c2576119c16118d3565b5b6119cd848285611984565b509392505050565b600082601f8301126119ea576119e96118ce565b5b81356119fa848260208601611993565b91505092915050565b60008060008060808587031215611a1d57611a1c611516565b5b6000611a2b87828801611763565b9450506020611a3c87828801611763565b9350506040611a4d878288016116ae565b925050606085013567ffffffffffffffff811115611a6e57611a6d61151b565b5b611a7a878288016119d5565b91505092959194509250565b600060ff82169050919050565b611a9c81611a86565b82525050565b6000602082019050611ab76000830184611a93565b92915050565b611ac681611a86565b8114611ad157600080fd5b50565b600081359050611ae381611abd565b92915050565b600060208284031215611aff57611afe611516565b5b6000611b0d84828501611ad4565b91505092915050565b60008060408385031215611b2d57611b2c611516565b5b6000611b3b85828601611763565b9250506020611b4c85828601611763565b9150509250929050565b7f4e487b7100000000000000000000000000000000000000000000000000000000600052602260045260246000fd5b60006002820490506001821680611b9d57607f821691505b602082108103611bb057611baf611b56565b5b50919050565b600081905092915050565b6000611bcc826115db565b611bd68185611bb6565b9350611be68185602086016115f7565b80840191505092915050565b6000611bfe8285611bc1565b9150611c0a8284611bc1565b91508190509392505050565b600081519050919050565b600082825260208201905092915050565b6000611c3d82611c16565b611c478185611c21565b9350611c578185602086016115f7565b611c6081611621565b840191505092915050565b6000608082019050611c806000830187611722565b611c8d6020830186611722565b611c9a60408301856117b8565b8181036060830152611cac8184611c32565b905095945050505050565b600081519050611cc68161154c565b92915050565b600060208284031215611ce257611ce1611516565b5b6000611cf084828501611cb7565b9150509291505056fe697066733a2f2f516d626a796953466f7437613833476d6855514b557175384a5653456b36576a4d5a79335779724b7334316432722fa2646970667358221220c78cbc1129f7b4e13e0654e0133a64fe2c93d94429e82cce0e22f3140e84b21064736f6c63430008140033",
  "linkReferences": {},
  "deployedLinkReferences": {}
}